:100000000C943C000C9459000C9459000C94590029
:100010000C9459000C9459000C9459000C945900FC
:100020000C9459000C9459000C9459000C945900EC
:100030000C9459000C9459000C9459000C945900DC
:100040000C9459000C9459000C9459000C945900CC
:100050000C9459000C9459000C9459000C945900BC
:100060000C940E010C9459007E306D79335B5F70F7
:100070007F7B771F4E3D4F4711241FBECFEFD8E047
:10008000DEBFCDBF11E0A0E0B1E0E6EDF6E002C0DA
:1000900005900D92A230B107D9F721E0A2E0B1E0BE
:1000A00001C01D92AB30B207E1F70E9468020C94C8
:1000B00069030C9400000E949F000E94B6000895FE
:1000C000419A27E030E041E050E04298FA01022EE8
:1000D00001C0EE0F0A94EAF7E82311F0409A01C03C
:1000E0004098429A2150310980F787E090E021E062
:1000F00030E04298A901082E01C0440F0A94EAF7A3
:10010000462311F0409A01C04098429A019788F71F
:100110004198419A089561E08CE00E94600060E09F
:100120008FE00E94600008956FEF680F8BE00E94DF
:1001300060000895682F8AE00E9460000895399A4F
:10014000389A3A9A0E948B0088E00E94940080E0DE
:100150000E949A000895CF93C1E060E08C2F0E9426
:100160006000CF5FC930C9F7CF9108951092B900F0
:1001700088E48093B8008FEF8093BB0084E0809385
:10018000BC0008958091BC00817008958091BC00EE
:1001900080FDFCCF8091000108952091BC0020FDDE
:1001A000FCCF60930301FC0120812093040120FF18
:1001B00007C088EF8093000185EA8093BC00089512
:1001C000DC011196E5E0F1E081E08E1B982F9E0F97
:1001D000961778F79D919193F9CF8091BC0080FD9F
:1001E000FCCF88EF8093000185EA8093BC000895DE
:1001F000482F8091BC0080FDFCCF809100018F3F93
:1002000061F424E031E0E42FF92FD9019A2F921BF9
:10021000961718F49D919193F9CF08951F920F921C
:100220000FB60F9211242F933F938F939F93EF93C9
:10023000FF938091B900887F883201F140F48031CA
:10024000D9F08831D9F0883009F048C015C0803421
:1002500091F128F4883309F041C085EA45C0803522
:10026000F1F08835D9F58091BB00E0910201F0E012
:10027000EC5FFE4F80832DC010920201E0910201DD
:1002800080910301E81728F581E08E0F8093020129
:10029000F0E0EC5FFE4F80818093BB0018C0E091DE
:1002A000020181E08E0F809302018091BB00F0E09B
:1002B000EC5FFE4F80832091020130E080910301CA
:1002C00090E001972817390714F485EC0DC085E8F4
:1002D0000BC08FEF8093000184E906C08091B900C4
:1002E000887F8093000184E08093BC00FF91EF91B0
:1002F0009F918F913F912F910F900FBE0F901F9064
:100300001895A0E0B0E0E7E8F1E00C943A03C82EBD
:10031000A92ED42EEDB6FEB6242F30E02F5F3F4F2E
:100320008DB79EB7821B930B0FB6F8949EBF0FBE7E
:100330008DBF0DB71EB70F5F1F4F80EDEDB7FEB736
:100340008183F801618362E0C8010E94CD0081EDE4
:10035000F8018083BB24B394BD0C6B2DC8010E94AF
:10036000CD006B2DC8010E94F800D80111969C2D7C
:10037000EC2DFA2D8E2F891B8D1518F48D918193FC
:10038000F9CF0FB6F894FEBE0FBEEDBEEAE00C94B6
:100390005603A0E0B0E0EFECF1E00C9440030DB7A1
:1003A0001EB752E0540F2DB73EB7251B31090FB6CB
:1003B000F8943EBF0FBE2DBFEDB7FEB7319620EDCE
:1003C000ADB7BEB711962C93618320E030E02417BF
:1003D00058F4DC016D91CD01DF01A20FB31F12961D
:1003E0006C932F5F3F4FF3CF652FCF010E94CD005D
:1003F0000FB6F8941EBF0FBE0DBFE4E00C945C0373
:100400006AE00E94260320E1829F900D1124892F2B
:10041000089543E060E00E9481010895A4E0B0E007
:10042000E4E1F2E00C944103182F842F6C830E94C6
:10043000000289836C81862F0E9400028A83812FAB
:100440000E9400028B8343E060E0CE0101960E948F
:10045000C9012496E3E00C945D0344E063E00E944C
:1004600081010895A6E0B0E0E8E3F2E00C944103D6
:10047000182F822F4D836E830E94000289834D8145
:10048000842F0E9400028A836E81862F0E940002C0
:100490008B83812F0E9400028C8344E063E0CE01B5
:1004A00001960E94C9012696E3E00C945D03A1E049
:1004B000B0E0EDE5F2E00C944203898341E067E0AF
:1004C000CE0101960E94C9012196E2E00C945E03E0
:1004D000A7E0B0E0EEE6F2E00C943D030E945B0082
:1004E0000E94AB0078940AE610E098E6E92E90E0CE
:1004F000F92ECE0101960E942D02EA81E295EF705D
:10050000F0E0E859FF4F649188E00E946000EA81C2
:10051000EF70F0E0E859FF4F6491606887E00E9457
:100520006000EB81E295EF70F0E0E859FF4F6491D5
:1005300086E00E946000EB81EF70F0E0E859FF4F29
:100540006491606885E00E946000F801649184E035
:100550000E946000F701649183E00E946000EC81DA
:10056000E295EF70F0E0E859FF4F649182E00E945D
:100570006000EC81EF70F0E0E859FF4F649181E09A
:100580000E946000FFEF27EA81E6F15020408040A2
:10059000E1F700C000000E94AB008AE0D82ECE0137
:1005A00005960E940902EF81E295EF70F0E0E859AC
:1005B000FF4F649186E00E946000EF81EF70F0E0F1
:1005C000E859FF4F649185E00E9460006E8162955A
:1005D0006F70E62FF0E0E859FF4F649184E00E94CD
:1005E00060006E816F70E62FF0E0E859FF4F649174
:1005F00083E00E9460006F816F70E62FF0E0E859A1
:10060000FF4F6491606885E00E9460009FEFE9E61B
:10061000F8E19150E040F040E1F700C000006F8148
:100620006F70E62FF0E0E859FF4F649185E00E947B
:1006300060002FEF89E698E1215080409040E1F77B
:1006400000C00000DA9409F0AACF53CF991B79E0DB
:1006500004C0991F961708F0961B881F7A95C9F752
:10066000809508952F923F924F925F926F927F9262
:100670008F929F92AF92BF92CF92DF92EF92FF92B2
:100680000F931F93CF93DF93CDB7DEB7CA1BDB0B5E
:100690000FB6F894DEBF0FBECDBF09942A88398803
:1006A00048885F846E847D848C849B84AA84B9840A
:1006B000C884DF80EE80FD800C811B81AA81B98116
:1006C000CE0FD11D0FB6F894DEBF0FBECDBFED012A
:0606D0000895F894FFCF2D
:0206D600F8002A
:00000001FF
